S01C0000496E746567726163696F6E5F696E66696E69746F2E73726563D6
S113000088C00000A6C00000A4C00000A2C0000078
S1130010A0C000009EC000009CC000009AC0000068
S113002098C0000096C0000094C000006DC200009B
S113003090C000008EC000008CC000008AC0000088
S113004088C0000086C0000084C0000082C0000098
S113005080C000007EC000007CC000007AC00000A8
S113006078C00000E2C5000074C0000072C0000047
S113007070C000006EC000006CC000006AC00000C8
S113008068C0000066C0000064C0000062C00000D8
S113009060C000005EC000005CC000005AC00000E8
S11300A058C0000056C0000054C0000052C00000F8
S11300B050C000004EC000004CC000004AC0000008
S11300C048C0000046C0000044C0000042C0000018
S11300D040C000003EC000003CC000003AC0000028
S11300E038C00000084AD73B3BCE016E84BCBFFD3C
S11300F0C12F3D6C74319ABD56833DDA3D00C77FF4
S113010011BED9E4BB4C3E916BAAAABE000000808C
S11301103F0011241FBECFEFD1E2DEBFCDBF00E010
S11301200CBF12E0A0E0B2E0ECE7F3E100E00BBFAB
S113013002C007900D92A036B107D9F722E0A0E6DD
S1130140B2E001C01D92AE3CB207E1F791D50C9428
S1130150BC0956CF94EA9093BC00ECEBF0E090819C
S11301609923ECF79091B900987F983011F0903171
S1130170A1F48093BB0084E88093BC00ECEBF0E036
S113018080818823ECF79091B900987F983139F0F9
S113019081E0903429F480E0089581E0089580E0BE
S11301A00895CF93DF93ECEBF0E024EAA9EBB0E001
S11301B0CBEBD0E034E844E9208390819923ECF739
S11301C09C91987F983011F09031B1F788833083F7
S11301D090819923ECF79C91987F903211F0983597
S11301E029F44083908194FDFDCFE6CFDF91CF9138
S11301F0089584E98093BC00ECEBF0E0808184FDF9
S1130200FDCF08958093BB0084E88093BC00ECEBA1
S1130210F0E080818823ECF79091B900987F81E029
S1130220983209F480E0089584EC8093BC00ECEBF0
S1130230F0E080818823ECF78091BB00089584E886
S11302408093BC00ECEBF0E080818823ECF7809194
S1130250BB000895CF92DF92EF92FF920F931F930A
S1130260CF93DF936C01E62E8CE39BDF83E0CADF40
S1130270C0DF8DE36FDFF12C81E0E81AF1081E1472
S11302801F0474F4C0E086010C0F111DCDDFF801CA
S11302908083CF5F2C2F30E02E153F05A4F301C0DF
S11302A0C0E0C6018C0F911DEC01C9DF8883A1DF7A
S11302B0DF91CF911F910F91FF90EF90DF90CF903E
S11302C008950F931F93CF93DF9300D000D0CDB741
S11302D0DEB78C0166E0CE010196BCDF898190E037
S11302E0982F88272A81822BF801918380838B8120
S11302F090E0982F88272C81822B958384832D81ED
S113030030E0322F22278E81282B338322832696B6
S11303100FB6F894DEBF0FBECDBFDF91CF911F9112
S11303200F910895CF92DF92EF92FF920F931F9354
S1130330CF93DF9300D000D0CDB7DEB78C01CE01D0
S11303400196BFDF69817A81072E000C880B990B17
S1130350C2D62091020230910302409104025091CE
S1130360050271D7F8016083718382839383C090FF
S11303700202D0900302E0900402F09005026B8127
S11303807C81072E000C880B990BA5D6A70196013A
S11303905AD7F80164837583868397838D819E8100
S11303A0BC01990F880B990B96D69B01AC01C70130
S11303B0B60149D7F80160877187828793872696AB
S11303C00FB6F894DEBF0FBECDBFDF91CF911F9162
S11303D00F91FF90EF90DF90CF900895EDE6F0E05D
S11303E080818F608083E8E6F0E080818460808390
S11303F01BBA0895E7E0F1E08081807F8083E8E024
S1130400F1E080818F608083E9CF08954F925F92FD
S11304106F927F928F929F92AF92BF92CF92DF9210
S1130420EF92FF926091850270918602072E000C74
S1130430880B990B50D62AE939E949E552E4B0D53D
S113044017D64B015C0170937E0260937D0260912C
S1130450830270918402072E000C880B990B3BD603
S11304602AE939E949E552E49BD502D62B013C013E
S113047070937C0260937B0260918102709182028E
S1130480072E000C880B990B26D62AE939E949E591
S113049052E486D5EDD56B017C0170937A026093AA
S11304A0790260917F0270918002072E000C880B04
S11304B0990B11D62AE939E949E552E471D5D8D521
S11304C07093780260937702840C951CC80CD91C35
S11304D06C0D7D1D772314F46D5F7F4FCB019595D3
S11304E08795959587959093760280937502FF90F2
S11304F0EF90DF90CF90BF90AF909F908F907F90C0
S11305006F905F904F9008951F920F920FB60F92C5
S113051011240BB60F922F933F938F939F93EF93D6
S1130520FF93E6E0F1E080819091010289279081B8
S11305309093010280FF0AC02091850230918602C7
S11305402F5F3F4F309386022093850281FF0AC0BC
S113055020918302309184022F5F3F4F30938402B5
S11305602093830282FF0AC020918102309182028B
S11305702F5F3F4F309382022093810283FF09C093
S113058080917F02909180020196909380028093E3
S11305907F02FF91EF919F918F913F912F910F9047
S11305A00BBE0F900FBE0F901F9018958130E1F095
S11305B030F0823071F1833009F440C00895E0ECEA
S11305C0F0E08081826080831092C50082E2809393
S11305D0C400E1ECF0E0808188698083E2ECF0E023
S11305E08081866080830895E8ECF0E080818260F9
S11305F080831092CD0082E28093CC00E9ECF0E09D
S1130600808188698083EAECF0E080818660808361
S11306100895E0EDF0E08081826080831092D5003F
S113062082E28093D400E1EDF0E0808188698083E8
S1130630E2EDF0E08081866080830895E0E3F1E0FC
S11306408081826080831092350182E2809334013C
S1130650E1E3F1E0808188698083E2E3F1E0808175
S1130660866080830895813071F028F0823099F09B
S11306708330C9F00895E0ECF0E0808185FFFDCF80
S11306806093C6000895E8ECF0E0808185FFFDCF1B
S11306906093CE000895E0EDF0E0808185FFFDCF0A
S11306A06093D6000895E0E3F1E0808185FFFDCFFB
S11306B06093360108951F93CF93DF93EB01219646
S11306C0FB016081662331F0182F812FCCDF699103
S11306D06111FBCFDF91CF911F9108951F93CF93A9
S11306E0DF93182FEB012196FB016081662329F02B
S11306F0812FB9DF69916111FBCF6DE0812FB3DFE9
S11307006AE0812FB0DFDF91CF911F910895CF93DD
S1130710DF9390E694B988E28DB92FEF21B995B9AA
S11307208EB912B8A0E8B0E08C918C93E1E8F0E0C7
S1130730808181618083E0E9F0E080818083C1E988
S1130740D0E08881816188838C9180688C938C91BE
S113075080628C93808180688083808188608083BC
S113076080E293E0909387008093860090939700B3
S113077080939600DF91CF91089577230CF0A3C066
S11307807195619571096536710514F064E670E040
S11307908230D9F018F4813031F00895833039F182
S11307A08430B9F10895CB01880F991F880F991FE0
S11307B0880F991F90938900809388001498159A44
S11307C070937402609373020895CB01880F991F8C
S11307D0880F991F880F991F90938B0080938A002C
S11307E01798169A70937202609371020895CB0160
S11307F0880F991F880F991F880F991F909399004C
S1130800809398001398129A709374026093730201
S11308100895CB01880F991F880F991F880F991F7E
S113082090939D0080939C001098119A709372028B
S1130830609371020895CB01880F991F880F991F47
S1130840880F991F9093890080938800149A1598B3
S113085070937402609373020895CB01880F991FFB
S1130860880F991F880F991F90938B0080938A009B
S1130870179A169870937202609371020895CB01CF
S1130880880F991F880F991F880F991F90939900BB
S113089080939800139A1298709374026093730271
S11308A00895CB01880F991F880F991F880F991FEE
S11308B090939D0080939C00109A119870937202FB
S11308C06093710208956536710514F064E670E072
S11308D0823019F220F4813009F4ADCF08958330C9
S11308E071F28430F1F2089577231CF471956195C7
S11308F071096536710514F064E670E08230D9F050
S113090018F4813031F00895833039F18430B9F12D
S11309100895CB01880F991F880F991F880F991F7D
S113092090938900809388001498159870937402AA
S1130930609373020895CB01880F991F880F991F44
S1130940880F991F90938B0080938A0017981698AC
S113095070937202609371020895CB01880F991FFE
S1130960880F991F880F991F90939900809398007E
S11309701398129870937402609373020895CB01D4
S1130980880F991F880F991F880F991F90939D00B6
S113099080939C0010981198709372026093710276
S11309A008950F931F93CF93DF93EB01823091054A
S11309B009F11CF4019741F05DC08330910579F190
S11309C0049709F443C056C0662777276C1B7D0B38
S11309D081E0D3DEBE0182E0D0DEBE0183E0CDDE65
S11309E0BE0184E0CADE81E090E0909370028093BF
S11309F06F0240C081E0C1DED195C195D109BE012D
S1130A0082E0BBDEBE0183E0B8DEBE0184E0B5DE79
S1130A1082E090E09093700280936F022BC00027D5
S1130A201127061B170BB80181E0A7DEBE0182E087
S1130A30A4DEB80183E0A1DEB80184E09EDE83E099
S1130A4090E09093700280936F0214C081E095DE71
S1130A50662777276C1B7D0B82E08FDEBE0183E067
S1130A608CDEBE0184E089DE84E090E09093700225
S1130A7080936F02DF91CF911F910F910895CF93CF
S1130A80DF93EC01BC0181E02FDFBE0182E02CDFAB
S1130A90BE0183E029DFBE0184E026DF10927002EC
S1130AA010926F02DF91CF9108958C3419F128F4DC
S1130AB0823481F0863431F00895823599F083359B
S1130AC009F1089560916D0270916E0281E090E0E9
S1130AD068CF089560916D0270916E0282E090E09B
S1130AE060CF089560916D0270916E0283E090E092
S1130AF058CF089560916D0270916E0284E090E089
S1130B0050CF089584E690E0BACF089580E48093AE
S1130B107C0087E880937A000895ECE7F0E0908108
S1130B208770987F892B8083EAE7F0E08081806476
S1130B30808388E080937B00808186FDFDCF809157
S1130B4078009091790008951092A0008DE0809330
S1130B50A1008CE994E29093A9008093A80082E01C
S1130B60809372000895109220018DE080932101FA
S1130B7084E09DE3909329018093280182E080938F
S1130B8073000895FF920F931F93CF93DF93F82E72
S1130B90C0E1D0E000E010E08F2DBFDF969587958F
S1130BA0080F191F8FE891E00197F1F700C00000CA
S1130BB0219791F7C801929582958F7089279F702C
S1130BC08927DF91CF911F910F91FF900895CF93C3
S1130BD0DF93C0E1D0E0809100029FDF20916702A3
S1130BE030916802820F931F90936802809367028A
S1130BF08FE891E00197F1F700C00000219759F7C1
S1130C008091670290916802929582958F708927EE
S1130C109F7089279093AB028093AA021092680276
S1130C2010926702DF91CF9108951F920F920FB631
S1130C300F9211248F939F938091C6008093A902F1
S1130C40982F9B7F923451F09EEA980F923030F0A7
S1130C508C3421F08B3211F08D3219F481E08093C1
S1130C6062029F918F910F900FBE0F901F90189565
S1130C70F89482E390E090936E0280936D0246DFD5
S1130C80B9DB80E093DCEAE0F1E08081826080837C
S1130C9010920B0159DF67DF3ADD7894E1ECF0E064
S1130CA080818068808380E090E0E9DE6AE072E021
S1130CB080E014DD60E172E080E010DD03E912E021
S1130CC0C8E6D0E080916202813029F48091A902C3
S1130CD0ECDE109262028FE055DF90936A028093FB
S1130CE069028EE04FDF90936C0280936B026FDF9A
S1130CF09093AB028093AA028091A902863431F4C6
S1130D0085DB909361028093600204C010926102BB
S1130D101092600287E892E005DBE7E8F2E02081C8
S1130D203181428153816481758186819781E5D0C7
S1130D302BED3FE049E450E46DD06093CA02709318
S1130D40CB028093CC029093CD0220EE3EE245E6A6
S1130D5052E479D28DD1709366026093650268E1A2
S1130D6072E080E0A8DC67E272E080E0A4DC66E385
S1130D7072E080E0A0DCF8011082B80180E09BDC26
S1130D8065E272E080E097DC66E472E080E093DC88
S1130D9069E472E080E08FDC4AE066EB72E0809107
S1130DA0630290916402B5D2BC0180E084DC65E208
S1130DB072E080E080DC66E472E080E07CDC65E583
S1130DC072E080E078DC4AE060EC72E080916502D9
S1130DD0909166029ED2BC0180E080DC67E472E000
S1130DE080E069DC8091A902863451F488818460B2
S1130DF088838FE19EE40197F1F700C0000062CF81
S1130E0088818883EFE1FEE43197F1F700C00000A8
S1130E1059CF5058BB27AA270ED0D4C1C5D130F022
S1130E20CAD120F031F49F3F11F41EF495C10EF4A1
S1130E30E095E7FB8BC1E92FD6D180F3BA1762079F
S1130E4073078407950718F071F49EF5EEC10EF44C
S1130E50E0950B2EBA2FA02D0B01B90190010C01C6
S1130E60CA01A0011124FF27591B99F0593F50F4DE
S1130E70503E68F11A16F040A22F232F342F442736
S1130E80585FF3CF469537952795A795F04053952E
S1130E90C9F77EF41F16BA0B620B730B840BBAF0FE
S1130EA09150A1F0FF0FBB1F661F771F881FC2F769
S1130EB00EC0BA0F621F731F841F48F4879577957D
S1130EC06795B795F7959E3F08F0B3CF9395880F34
S1130ED008F09927EE0F97958795089565D158F0F6
S1130EE080E891E009F49EEF66D128F040E851E0F3
S1130EF059F45EEF09C030C198C1E92FE07873D18D
S1130F0068F3092E052AC1F326173707480759073E
S1130F1038F00E2E07F8E02569F0E025E0640AC0F9
S1130F20EF6307F8009407FADB01B9019D01DC01C6
S1130F30CA01AD01EF9343D045D10AD05F91552347
S1130F4031F02BED3FE049E450FD49EC63CF0895C7
S1130F50DF93DD27B92FBF7740E85FE31616170646
S1130F6048075B0710F4D92F67D19F938F937F9322
S1130F706F93CCD1E4EEF0E0F2D024D12F913F91E5
S1130F804F915F916CD1DD2349F09058A2EA2AED8C
S1130F903FE049EC5FE3D0785D274DDFDF9112C17C
S1130FA00CD010C108D140F0FFD030F021F45F3FE5
S1130FB019F0CCC051113AC1CFC015D198F399237F
S1130FC0C9F35523B1F3951B550BBB27AA27621709
S1130FD07307840738F09F5F5F4F220F331F441F4E
S1130FE0AA1FA9F333D00E2E3AF0E0E830D0915086
S1130FF05040E695001CCAF729D0FE2F27D0660F73
S1131000771F881FBB1F261737074807AB07B0E8B1
S113101009F0BB0B802DBF01FF2793585F4F2AF0C7
S11310209E3F510568F092C001C15F3FECF3983ECA
S1131030DCF3869577956795B795F7959F5FC9F724
S1131040880F911D9695879597F90895E1E0660FAD
S1131050771F881FBB1F621773078407BA0720F026
S1131060621B730B840BBA0BEE1F88F7E09508958F
S113107004D06894B111DAC00895BDD088F09F57A8
S113108090F0B92F9927B751A0F0D1F0660F771FD0
S1131090881F991F1AF0BA95C9F712C0B13081F0B0
S11310A0C4D0B1E00895C1C0672F782F8827B85FF6
S11310B039F0B93FCCF3869577956795B395D9F711
S11310C03EF490958095709561957F4F8F4F9F4F1B
S11310D00895E89409C097FB3EF490958095709527
S11310E061957F4F8F4F9F4F9923A9F0F92F96E970
S11310F0BB279395F695879577956795B795F111E5
S1131100F8CFFAF4BB0F11F460FF1BC06F5F7F4F81
S11311108F4F9F4F16C0882311F096E911C0772393
S113112021F09EE8872F762F05C0662371F096E89C
S1131130862F70E060E02AF09A95660F771F881F6B
S1131140DAF7880F9695879597F9089597F99F6729
S113115080E870E060E008959FEF80EC0895DF93ED
S1131160CF931F930F93FF92EF92DF927B018C0139
S1131170689405C0DA2EEF0172D0FE01E894A591BF
S11311802591359145915591AEF3EF0154DEFE0161
S11311909701A801DA9479F7DF90EF90FF900F910F
S11311A01F91CF91DF91089500240A941616170613
S11311B018060906089500240A9412161306140644
S11311C005060895092E0394000C11F4882352F0A7
S11311D0BB0F40F4BF2B11F460FF04C06F5F7F4F5F
S11311E08F4F9F4F089557FD9058440F551F59F046
S11311F05F3F71F04795880F97FB991F61F09F3F00
S113120079F087950895121613061406551FF2CF28
S11312104695F1DF08C0161617061806991FF1CF78
S113122086957105610508940895E894BB2766279F
S11312307727CB0197F908959B01AC0160E070E03A
S113124080E89FE3ADCE0BD0BDCFAEDF28F0B3DF97
S113125018F0952309F07ACF7FCF1124E7CFC3DFAD
S1131260A0F3959FD1F3950F50E0551F629FF001B5
S1131270729FBB27F00DB11D639FAA27F00DB11D0E
S1131280AA1F649F6627B00DA11D661F829F222797
S1131290B00DA11D621F739FB00DA11D621F839F1E
S11312A0A00D611D221F749F3327A00D611D231FF4
S11312B0849F600D211D822F762F6A2F11249F5742
S11312C050408AF0E1F088234AF0EE0FFF1FBB1F65
S11312D0661F771F881F91505040A9F79E3F510504
S11312E070F034CFA3CF5F3FECF3983EDCF38695E8
S11312F077956795B795F795E7959F5FC1F7FE2BAF
S1131300880F911D9695879597F908959B01AC01D7
S11313109ACFBB274A3031F4992322F4BDE2909549
S113132081959F4F01C0BB27FB015527AA27880F32
S1131330991FAA1FA41710F0A41B83955051B9F745
S1131340A05DAA3308F0A95DA193009779F7B111C4
S1131350B1931192CB0100C0DC01FC01672F7191A4
S11313607723E1F7329704C07C916D937083629187
S10F1370AE17BF07C8F30895F894FFCF30
S113137C0DFF0000803F20636D007265736574007F
S113138C696E696369617200556C747261736F6E16
S113139C69632D313A2000556C747261736F6E69F8
S11313AC632D323A200043617267612D426174658A
S11313BC7269613A20000D0A0044697374616E63AA
S11313CC69613A200068656164696E673A200000BF
S9030000FC
