:1000000088C00000A5C00000A3C00000A1C000007F
:100010009FC000009DC000009BC0000099C0000070
:1000200097C0000095C0000093C0000091C0000080
:100030008FC000008DC000008BC0000089C0000090
:1000400087C0000085C0000083C0000081C00000A0
:100050007FC000007DC000007BC0000079C00000B0
:1000600077C000005DC4000073C0000071C00000D4
:100070006FC000006DC000006BC0000069C00000D0
:1000800067C0000065C0000063C0000061C00000E0
:100090005FC000005DC000005BC0000059C00000F0
:1000A00057C0000055C0000053C0000051C0000000
:1000B0004FC000004DC000004BC0000049C0000010
:1000C00047C0000045C0000043C0000041C0000020
:1000D0003FC000003DC000003BC0000039C0000030
:1000E00037C00000084AD73B3BCE016E84BCBFFD41
:1000F000C12F3D6C74319ABD56833DDA3D00C77FF8
:1001000011BED9E4BB4C3E916BAAAABE0000008090
:100110003F0011241FBECFEFD1E2DEBFCDBF00E014
:100120000CBF12E0A0E0B2E0E4E6FFE000E00BBFAD
:1001300002C007900D92AE31B107D9F722E0AEE1CF
:10014000B2E001C01D92AA34B207E1F70CD408C78F
:1001500057CF8130E1F030F0823071F1833009F413
:1001600040C00895E0ECF0E08081826080831092CE
:10017000C50082E28093C400E1ECF0E080818869F0
:100180008083E2ECF0E08081866080830895E8EC73
:10019000F0E08081826080831092CD0082E28093C3
:1001A000CC00E9ECF0E0808188698083EAECF0E043
:1001B0008081866080830895E0EDF0E08081826038
:1001C00080831092D50082E28093D400E1EDF0E0CC
:1001D000808188698083E2EDF0E0808186608083A1
:1001E0000895E0E3F1E08081826080831092350120
:1001F00082E280933401E1E3F1E0808188698083C9
:10020000E2E3F1E08081866080830895813071F0BF
:1002100028F0823099F08330C9F00895E0ECF0E0E6
:10022000808185FFFDCF6093C6000895E8ECF0E083
:10023000808185FFFDCF6093CE000895E0EDF0E072
:10024000808185FFFDCF6093D6000895E0E3F1E063
:10025000808185FFFDCF6093360108951F93CF9372
:10026000DF93182FEB012196FB016081662329F0B3
:10027000812FCCDF69916111FBCF6DE0812FC6DF4B
:100280006AE0812FC3DFDF91CF911F910895109213
:10029000B90088E48093B800089594EA9093BC0074
:1002A000ECEBF0E090819923ECF79091B900987F06
:1002B000983011F09031A1F48093BB0084E88093D2
:1002C000BC00ECEBF0E080818823ECF79091B90062
:1002D000987F983139F081E0903429F480E00895D6
:1002E00081E0089580E00895CF93DF93ECEBF0E098
:1002F00024EAA9EBB0E0CBEBD0E034E844E920837A
:1003000090819923ECF79C91987F983011F090316F
:10031000B1F78883308390819923ECF79C91987F83
:10032000903211F0983529F44083908194FDFDCFEF
:10033000E6CFDF91CF91089584E98093BC00ECEB88
:10034000F0E0808184FDFDCF08958093BB0084E8B8
:100350008093BC00ECEBF0E080818823ECF7909177
:10036000B900987F81E0983209F480E0089584EC28
:100370008093BC00ECEBF0E080818823ECF7809167
:10038000BB00089584E88093BC00ECEBF0E0808132
:100390008823ECF78091BB000895CF92DF92EF9213
:1003A000FF920F931F93CF93DF936C01E62E8CE3A4
:1003B0009BDF83E0CADFC0DF8DE36FDFF12C81E0DC
:1003C000E81AF1081E141F0474F4C0E086010C0F33
:1003D000111DCDDFF8018083CF5F2C2F30E02E156B
:1003E0003F05A4F301C0C0E0C6018C0F911DEC01D4
:1003F000C9DF8883A1DFDF91CF911F910F91FF901B
:10040000EF90DF90CF9008950F931F93CF93DF93DA
:1004100000D000D0CDB7DEB78C0166E0CE010196EA
:10042000BCDF898190E0982F88272A81822BF801F0
:10043000918380838B8190E0982F88272C81822B59
:10044000958384832D8130E0322F22278E81282BC3
:100450003383228326960FB6F894DEBF0FBECDBF3E
:10046000DF91CF911F910F910895CF92DF92EF927C
:10047000FF920F931F93CF93DF9300D000D0CDB79F
:10048000DEB78C01CE010196BFDF69817A81072E2C
:10049000000C880B990B13D42091000230910102BB
:1004A0004091020250910302C2D4F801608371832B
:1004B00082839383C0900002D0900102E0900202F8
:1004C000F09003026B817C81072E000C880B990B46
:1004D000F6D3A7019601ABD4F801648375838683B4
:1004E00097838D819E81BC01990F880B990BE7D36F
:1004F0009B01AC01C701B6019AD4F80160877187EE
:100500008287938726960FB6F894DEBF0FBECDBFC5
:10051000DF91CF911F910F91FF90EF90DF90CF90DF
:100520000895CF93DF9390E694B988E28DB92FEFC9
:1005300021B995B98EB912B8A0E8B0E08C918C932E
:10054000E1E8F0E0808181618083E0E9F0E0808192
:100550008083C1E9D0E08881816188838C91806843
:100560008C938C9180628C93808180688083808161
:100570008860808380E293E0909387008093860078
:100580009093970080939600DF91CF910895772301
:100590000CF0A3C07195619571096536710514F071
:1005A00064E670E08230D9F018F4813031F00895BB
:1005B000833039F18430B9F10895CB01880F991F48
:1005C000880F991F880F991F909389008093880046
:1005D0001498159A70932C0260932B020895CB0106
:1005E000880F991F880F991F880F991F90938B0070
:1005F00080938A001798169A70932A0260932902B2
:100600000895CB01880F991F880F991F880F991F94
:1006100090939900809398001398129A70932C02EB
:1006200060932B020895CB01880F991F880F991FA3
:10063000880F991F90939D0080939C001098119AA9
:1006400070932A02609329020895CB01880F991FA5
:10065000880F991F880F991F9093890080938800B5
:10066000149A159870932C0260932B020895CB0175
:10067000880F991F880F991F880F991F90938B00DF
:1006800080938A00179A169870932A026093290221
:100690000895CB01880F991F880F991F880F991F04
:1006A0009093990080939800139A129870932C025B
:1006B00060932B020895CB01880F991F880F991F13
:1006C000880F991F90939D0080939C00109A119819
:1006D00070932A026093290208956536710514F01B
:1006E00064E670E0823019F220F4813009F4ADCF75
:1006F0000895833071F28430F1F2089577231CF469
:100700007195619571096536710514F064E670E0C4
:100710008230D9F018F4813031F00895833039F106
:100720008430B9F10895CB01880F991F880F991F64
:10073000880F991F909389008093880014981598CA
:1007400070932C0260932B020895CB01880F991FA0
:10075000880F991F880F991F90938B0080938A00B0
:100760001798169870932A02609329020895CB0176
:10077000880F991F880F991F880F991F90939900D0
:10078000809398001398129870932C0260932B0218
:100790000895CB01880F991F880F991F880F991F03
:1007A00090939D0080939C001098119870932A025A
:1007B0006093290208950F931F93CF93DF93EB016A
:1007C0008230910509F11CF4019741F05DC083303E
:1007D000910579F1049709F443C056C0662777273D
:1007E0006C1B7D0B81E0D3DEBE0182E0D0DEBE015A
:1007F00083E0CDDEBE0184E0CADE81E090E090932C
:1008000028028093270240C081E0C1DED195C195C6
:10081000D109BE0182E0BBDEBE0183E0B8DEBE01CD
:1008200084E0B5DE82E090E0909328028093270276
:100830002BC000271127061B170BB80181E0A7DE8C
:10084000BE0182E0A4DEB80183E0A1DEB80184E04D
:100850009EDE83E090E0909328028093270214C0EC
:1008600081E095DE662777276C1B7D0B82E08FDEAB
:10087000BE0183E08CDEBE0184E089DE84E090E08E
:100880009093280280932702DF91CF911F910F91BF
:100890000895CF93DF93EC01BC0181E02FDFBE010F
:1008A00082E02CDFBE0183E029DFBE0184E026DF89
:1008B0001092280210922702DF91CF9108958C3474
:1008C00019F128F4823481F0863431F008958235AC
:1008D00099F0833509F108956091250270912602FF
:1008E00081E090E068CF0895609125027091260222
:1008F00082E090E060CF0895609125027091260219
:1009000083E090E058CF089560912502709126020F
:1009100084E090E050CF089584E690E0BACF089547
:100920001F920F920FB60F9211248F939F93809175
:10093000C60080933F02982F9B7F923451F09EEA2D
:10094000980F923030F08C3421F08B3211F08D32D0
:1009500019F481E080931E029F918F910F900FBE3A
:100960000F901F901895F89480E0F3DB90DCD9DDB0
:1009700064E072E080E072DC6AE072E080E06EDCED
:10098000789480911E02813029F480913F0297DF94
:1009900010921E0262E172E080E060DC8DE292E083
:1009A00064DDEDE2F2E02081318142815381648196
:1009B00075818681978195D02BED3FE049E450E425
:1009C0001DD060931F0270932002809321029093A8
:1009D000220220EE3EE245E652E429D23DD1DC017E
:1009E000CB0190932402809323024AE060E472E0FA
:1009F00084D2BC0180E032DCC4CF5058BB27AA2788
:100A00000ED0D4C1C5D130F0CAD120F031F49F3F0F
:100A100011F41EF495C10EF4E095E7FB8BC1E92FAC
:100A2000D6D180F3BA17620773078407950718F0C9
:100A300071F49EF5EEC10EF4E0950B2EBA2FA02DA9
:100A40000B01B90190010C01CA01A0011124FF277B
:100A5000591B99F0593F50F4503E68F11A16F04076
:100A6000A22F232F342F4427585FF3CF4695379575
:100A70002795A795F0405395C9F77EF41F16BA0B3A
:100A8000620B730B840BBAF09150A1F0FF0FBB1FE8
:100A9000661F771F881FC2F70EC0BA0F621F731F31
:100AA000841F48F4879577956795B795F7959E3F8E
:100AB00008F0B3CF9395880F08F09927EE0F97951C
:100AC0008795089565D158F080E891E009F49EEF8C
:100AD00066D128F040E851E059F45EEF09C030C11A
:100AE00098C1E92FE07873D168F3092E052AC1F384
:100AF000261737074807590738F00E2E07F8E02564
:100B000069F0E025E0640AC0EF6307F8009407FA93
:100B1000DB01B9019D01DC01CA01AD01EF9343D0B6
:100B200045D10AD05F91552331F02BED3FE049E4E8
:100B300050FD49EC63CF0895DF93DD27B92FBF77D0
:100B400040E85FE31616170648075B0710F4D92F35
:100B500067D19F938F937F936F93CCD1E4EEF0E0B6
:100B6000F2D024D12F913F914F915F916CD1DD2331
:100B700049F09058A2EA2AED3FE049EC5FE3D078D3
:100B80005D274DDFDF9112C10CD010C108D140F0BC
:100B9000FFD030F021F45F3F19F0CCC051113AC1C1
:100BA000CFC015D198F39923C9F35523B1F3951B01
:100BB000550BBB27AA2762177307840738F09F5F7E
:100BC0005F4F220F331F441FAA1FA9F333D00E2EED
:100BD0003AF0E0E830D091505040E695001CCAF75A
:100BE00029D0FE2F27D0660F771F881FBB1F26171F
:100BF00037074807AB07B0E809F0BB0B802DBF01F2
:100C0000FF2793585F4F2AF09E3F510568F092C02E
:100C100001C15F3FECF3983EDCF3869577956795CD
:100C2000B795F7959F5FC9F7880F911D96958795A2
:100C300097F90895E1E0660F771F881FBB1F6217C1
:100C400073078407BA0720F0621B730B840BBA0B7F
:100C5000EE1F88F7E095089504D06894B111DAC0CA
:100C60000895BDD088F09F5790F0B92F9927B751BC
:100C7000A0F0D1F0660F771F881F991F1AF0BA9560
:100C8000C9F712C0B13081F0C4D0B1E00895C1C03D
:100C9000672F782F8827B85F39F0B93FCCF3869556
:100CA00077956795B395D9F73EF4909580957095B3
:100CB00061957F4F8F4F9F4F0895E89409C097FB30
:100CC0003EF490958095709561957F4F8F4F9F4F23
:100CD0009923A9F0F92F96E9BB279395F695879567
:100CE00077956795B795F111F8CFFAF4BB0F11F42A
:100CF00060FF1BC06F5F7F4F8F4F9F4F16C08823D1
:100D000011F096E911C0772321F09EE8872F762F06
:100D100005C0662371F096E8862F70E060E02AF047
:100D20009A95660F771F881FDAF7880F9695879533
:100D300097F9089597F99F6780E870E060E008955B
:100D40009FEF80EC0895DF93CF931F930F93FF9253
:100D5000EF92DF927B018C01689405C0DA2EEF01DF
:100D600072D0FE01E894A591259135914591559158
:100D7000AEF3EF0154DEFE019701A801DA9479F792
:100D8000DF90EF90FF900F911F91CF91DF91089529
:100D900000240A941616170618060906089500245A
:100DA0000A9412161306140605060895092E0394D4
:100DB000000C11F4882352F0BB0F40F4BF2B11F448
:100DC00060FF04C06F5F7F4F8F4F9F4F089557FDA7
:100DD0009058440F551F59F05F3F71F04795880FA9
:100DE00097FB991F61F09F3F79F087950895121640
:100DF00013061406551FF2CF4695F1DF08C01616EC
:100E000017061806991FF1CF86957105610508949C
:100E10000895E894BB2766277727CB0197F90895B3
:100E20009B01AC0160E070E080E89FE3ADCE0BD0A9
:100E3000BDCFAEDF28F0B3DF18F0952309F07ACFED
:100E40007FCF1124E7CFC3DFA0F3959FD1F3950F98
:100E500050E0551F629FF001729FBB27F00DB11D3E
:100E6000639FAA27F00DB11DAA1F649F6627B00DCE
:100E7000A11D661F829F2227B00DA11D621F739FB7
:100E8000B00DA11D621F839FA00D611D221F749FC5
:100E90003327A00D611D231F849F600D211D822F0C
:100EA000762F6A2F11249F5750408AF0E1F0882353
:100EB0004AF0EE0FFF1FBB1F661F771F881F915060
:100EC0005040A9F79E3F510570F034CFA3CF5F3F4C
:100ED000ECF3983EDCF3869577956795B795F79593
:100EE000E7959F5FC1F7FE2B880F911D969587951B
:100EF00097F908959B01AC019ACFBB274A3031F492
:100F0000992322F4BDE2909581959F4F01C0BB27A4
:100F1000FB015527AA27880F991FAA1FA41710F0B5
:100F2000A41B83955051B9F7A05DAA3308F0A95DC1
:100F3000A193009779F7B111B1931192CB0100C041
:100F4000DC01FC01672F71917723E1F7329704C030
:100F50007C916D9370836291AE17BF07C8F30895BB
:040F6000F894FFCF33
:100F64000000803F726573657400696E696369612E
:0E0F7400720064656E74726F206D61696E00AC
:00000001FF
