S01300005072756562615F4D61696E2E73726563CE
S113000088C00000A6C00000A4C00000A2C0000078
S1130010A0C000009EC000009CC000009AC0000068
S113002098C0000096C0000094C0000092C0000078
S113003090C000008EC000008CC000008AC0000088
S113004088C0000086C0000084C0000082C0000098
S113005080C000007EC000007CC000007AC00000A8
S113006078C00000DCC5000074C0000072C000004D
S113007070C000006EC000006CC000006AC00000C8
S113008068C0000066C0000064C0000062C00000D8
S113009060C000005EC000005CC000005AC00000E8
S11300A058C0000056C0000054C0000052C00000F8
S11300B050C000004EC000004CC000004AC0000008
S11300C048C0000046C0000044C0000042C0000018
S11300D040C000003EC000003CC000003AC0000028
S11300E038C00000084AD73B3BCE016E84BCBFFD3C
S11300F0C12F3D6C74319ABD56833DDA3D00C77FF4
S113010011BED9E4BB4C3E916BAAAABE000000808C
S11301103F0011241FBECFEFD1E2DEBFCDBF00E010
S11301200CBF12E0A0E0B2E0E2E2F3E100E00BBFBA
S113013002C007900D92A038B107D9F722E0A0E8D9
S1130140B2E001C01D92A93CB207E1F78BD50C9433
S11301508F0956CF8130E1F030F0823071F1833075
S113016009F440C00895E0ECF0E08081826080836F
S11301701092C50082E28093C400E1ECF0E080813B
S113018088698083E2ECF0E0808186608083089552
S1130190E8ECF0E08081826080831092CD0082E2FE
S11301A08093CC00E9ECF0E0808188698083EAECFC
S11301B0F0E08081866080830895E0EDF0E0808146
S11301C0826080831092D50082E28093D400E1EDB6
S11301D0F0E0808188698083E2EDF0E080818660D0
S11301E080830895E0E3F1E080818260808310924F
S11301F0350182E280933401E1E3F1E08081886992
S11302008083E2E3F1E08081866080830895813019
S113021071F028F0823099F08330C9F00895E0EC51
S1130220F0E0808185FFFDCF6093C6000895E8EC7F
S1130230F0E0808185FFFDCF6093CE000895E0ED6E
S1130240F0E0808185FFFDCF6093D6000895E0E360
S1130250F1E0808185FFFDCF6093360108951F93FF
S1130260CF93DF93EB012196FB016081662331F08C
S1130270182F812FCCDF69916111FBCFDF91CF91D2
S11302801F9108951F93CF93DF93182FEB012196AD
S1130290FB016081662329F0812FB9DF6991611127
S11302A0FBCF6DE0812FB3DF6AE0812FB0DFDF91F8
S11302B0CF911F91089588B1836088B91092B900D5
S11302C088E48093B800089594EA9093BC00ECEB22
S11302D0F0E090819923ECF79091B900987F9830E1
S11302E011F09031A1F48093BB0084E88093BC00AA
S11302F0ECEBF0E080818823ECF79091B900987FD3
S1130300983139F081E0903429F480E0089581E057
S1130310089580E00895CF93DF93ECEBF0E024EAB6
S1130320A9EBB0E0CBEBD0E034E844E92083908142
S11303309923ECF79C91987F983011F09031B1F7A4
S11303408883308390819923ECF79C91987F903235
S113035011F0983529F44083908194FDFDCFE6CFC8
S1130360DF91CF91089584E98093BC00ECEBF0E039
S1130370808184FDFDCF08958093BB0084E8809341
S1130380BC00ECEBF0E080818823ECF79091B9009D
S1130390987F81E0983209F480E0089584EC80939A
S11303A0BC00ECEBF0E080818823ECF78091BB008B
S11303B0089584E88093BC00ECEBF0E0808188230E
S11303C0ECF78091BB000895CF93DF93D82FC62F0D
S11303D08CE37ADF8D2FD0DF8C2FCEDFC4DFDF916B
S11303E0CF910895CF92DF92EF92FF926B017C013F
S11303F02EEA37E441E65FE37ED581110EC088E43E
S113040091EEAAE3BFE38093010290930202A093CA
S11304100302B093040260E0A2C026E636E646EA90
S11304205FE3C701B60167D581110EC08FE195E87E
S1130430ABE6BFE38093010290930202A093030210
S1130440B093040261E08BC023E333E343EF5FE343
S1130450C701B60150D581110EC086EF98E2ACE910
S1130460BFE38093010290930202A0930302B0932E
S1130470040262E074C020E030E040E250E4C701CE
S1130480B60139D581110EC08CE59FE8A2ECBFE31B
S11304908093010290930202A0930302B09304029A
S11304A063E05DC020E030E040E850E4C701B601FD
S11304B022D581110EC08EEA97E4A1E1B0E48093C5
S11304C0010290930202A0930302B093040264E039
S11304D046C026E636E646E950E4C701B6010BD528
S11304E081110EC08AE097EDA3E2B0E4809301028B
S11304F090930202A0930302B093040265E02FC01C
S113050023E333E343EB50E4C701B601F4D4811190
S11305100EC085E89BEEA1E4B0E4809301029093C1
S11305200202A0930302B093040266E018C02AE911
S113053039E941E051E4C701B601DDD481110EC0AF
S113054083E393E3ABE8B0E4809301029093020267
S1130550A0930302B093040267E001C060E06295D7
S1130560660F607E81E030DFFF90EF90DF90CF90E8
S1130570089560E780E028DF66E676E686EA9FE392
S113058031DF60E082E020CF0895CF92DF92EF92D6
S1130590FF920F931F93CF93DF936C01E62E8CE3AE
S11305A0BADE83E0E9DEDFDE8DE38EDEF12C81E06E
S11305B0E81AF1081E141F0474F4C0E086010C0F3D
S11305C0111DECDEF8018083CF5F2C2F30E02E1557
S11305D03F05A4F301C0C0E0C6018C0F911DEC01DE
S11305E0E8DE8883C0DEDF91CF911F910F91FF90E9
S11305F0EF90DF90CF9008950F931F93CF93DF93E5
S113060000D000D0CDB7DEB78C0166E0CE010196F4
S1130610BCDF898190E0982F88272A81822BF801FA
S1130620918380838B8190E0982F88272C81822B63
S1130630958384832D8130E0322F22278E81282BCD
S11306403383228326960FB6F894DEBF0FBECDBF48
S1130650DF91CF911F910F910895CF92DF92EF9286
S1130660FF920F931F93CF93DF9300D000D0CDB7A9
S1130670DEB78C01CE010196BFDF69817A81072E36
S1130680000C880B990BD6D4209101023091020200
S11306904091030250910402A9D5F801608371834B
S11306A082839383C0900102D0900202E0900302FF
S11306B0F09004026B817C81072E000C880B990B4F
S11306C0B9D4A701960192D5F80164837583868312
S11306D097838D819E81BC01990F880B990BAAD4B5
S11306E09B01AC01C701B60181D5F8016087718710
S11306F08287938726960FB6F894DEBF0FBECDBFD0
S1130700DF91CF911F910F91FF90EF90DF90CF90E9
S11307100895CF93DF9390E694B988E28DB92FEFD3
S113072021B995B98EB912B8A0E8B0E08C918C9338
S1130730E1E8F0E0808181618083E0E9F0E080819C
S11307408083C1E9D0E08881816188838C9180684D
S11307508C938C9180628C9380818068808380816B
S11307608860808380E293E0909387008093860082
S11307709093970080939600DF91CF91089577230B
S11307800CF0A7C07195619571096536710514F077
S113079064E670E0813091F49B01220F331F220F35
S11307A0331F220F331F309389002093880014983D
S11307B0159A709394026093930228C0823091F446
S11307C0CB01880F991F880F991F880F991F909349
S11307D08B0080938A001798169A70939202609304
S11307E091020895833091F4CB01880F991F880FEB
S11307F0991F880F991F90939900809398001398DC
S1130800129A70939402609393020895843009F0CD
S113081069C0CB01880F991F880F991F880F991FF2
S113082090939D0080939C001098119A709392026B
S11308306093910208959B01220F331F220F331FEF
S1130840220F331F3093890020938800149A15983F
S1130850709394026093930228C0823091F4CB0188
S1130860880F991F880F991F880F991F90938B00E9
S113087080938A00179A169870939202609391025B
S11308800895833091F4CB01880F991F880F991F25
S1130890880F991F9093990080939800139A129847
S11308A0709394026093930208958430D9F4CB0139
S11308B0880F991F880F991F880F991F90939D0087
S11308C080939C00109A1198709392026093910205
S11308D008956536710514F064E670E0813009F01E
S11308E0BCCFA9CF089577231CF471956195710944
S11308F06536710514F064E670E0813091F49B0173
S1130900220F331F220F331F220F331F309389000E
S1130910209388001498159870939402609393021E
S113092028C0823091F4CB01880F991F880F991F3A
S1130930880F991F90938B0080938A0017981698BC
S113094070939202609391020895833091F4CB01E5
S1130950880F991F880F991F880F991F90939900EA
S11309608093980013981298709394026093930262
S11309700895843089F4CB01880F991F880F991F3B
S1130980880F991F90939D0080939C001098119854
S1130990709392026093910208950F931F93CF93E3
S11309A0DF93EC018B0181309105B1F46627772741
S11309B0601B710B81E0E3DEB80182E0E0DEB80188
S11309C083E0DDDEB80184E0DADE81E090E090933C
S11309D0900280938F0231C082309105A9F481E0A6
S11309E0CEDE119501951109B80182E0C8DEB80187
S11309F083E0C5DEB80184E0C2DE82E090E090933B
S1130A00900280938F0230C00397B9F4CC27DD277E
S1130A10C61BD70BBE0181E0B2DEB80182E0AFDEB7
S1130A20BE0183E0ACDEBE0184E0A9DE83E090E099
S1130A309093900280938F0217C02497A9F4B80171
S1130A4081E09DDE66277727601B710B82E097DECD
S1130A50B80183E094DEB80184E091DE84E090E0A4
S1130A609093900280938F02DF91CF911F910F9109
S1130A700895CF93DF93EC01BC0181E034DFBE0124
S1130A8082E031DFBE0183E02EDFBE0184E02BDF94
S1130A901092900210928F02DF91CF910895CF931C
S1130AA0C82F863441F460918D0270918E0281E0EA
S1130AB090E073DF14C0823441F460918D02709130
S1130AC08E0282E090E069DF14C0823541F46091C7
S1130AD08D0270918E0283E090E05FDF0FC0CC3412
S1130AE041F460918D0270918E0284E090E055DFB4
S1130AF005C0C33519F484E690E0BBDFCF910895B7
S1130B0080E480937C0087E880937A000895ECE782
S1130B10F0E090818770987F892B8083EAE7F0E08A
S1130B2080818064808388E080937B00808186FD5F
S1130B30FDCF80917800909179000895CF93DF9351
S1130B40C0E1D0E080910002E2DF20918B0230917D
S1130B508C02820F931F90938C0280938B028FE8F8
S1130B6091E00197F1F700C00000219759F78091B7
S1130B708B0290918C02929582958F7089279F7039
S1130B8089279093B3028093B20210928C02109240
S1130B908B02DF91CF9108951092A0008DE0809395
S1130BA0A1008CE994E29093A9008093A80082E0CC
S1130BB0809372000895109220018DE080932101AA
S1130BC084E09DE3909329018093280182E080933F
S1130BD073000895FF920F931F93CF93DF93F82E22
S1130BE0C0E1D0E000E010E08F2D91DF969587956D
S1130BF0080F191F8FE891E00197F1F700C000007A
S1130C00219791F7C801929582958F7089279F70DB
S1130C108927DF91CF911F910F91FF9008951F9223
S1130C200F920FB60F9211248F939F938091C60059
S1130C308093B102982F9B7F923451F09EEA980FD3
S1130C40923030F08C3421F08B3211F08D3219F463
S1130C5081E0809380029F918F910F900FBE0F903F
S1130C601F901895F8944CDF97DFA5DF80E072DAC7
S1130C7022DB7FDC4EDD69E072E080E003DB789408
S1130C80C5EBD2E080918002813071F48091B10291
S1130C9006DF66E272E080E0E2DA6091B10270E0C1
S1130CA080E0F0DA1092800263E372E080E0EADA36
S1130CB08EE090DF90938A02809389028FE08ADF2E
S1130CC0909388028093870239DF9093B3028093D4
S1130CD0B20285E992E0C1DCE5E9F2E020813181EC
S1130CE0428153816481758186819781B1D02BEDD6
S1130CF03FE049E450E439D060938102709382026A
S1130D00809383029093840220EE3EE245E652E40F
S1130D106DD25DD1709386026093850267E472E0C0
S1130D2080E09DDA66E572E080E099DA65E672E0DB
S1130D3080E095DA1882BE0180E0A4DA65E772E00B
S1130D4080E08DDA4AE06FEB72E080918502909149
S1130D508602B2D2BC0180E095DA8FE39CE9019768
S1130D60F1F700C000008ECF5058BB27AA270ED041
S1130D70FCC1EDD130F0F2D120F031F49F3F11F4F9
S1130D801EF4BDC10EF4E095E7FBB3C1E92FFED11B
S1130D9080F3BA17620773078407950718F071F494
S1130DA09EF516C20EF4E0950B2EBA2FA02D0B0162
S1130DB0B90190010C01CA01A0011124FF27591B9C
S1130DC099F0593F50F4503E68F11A16F040A22FA2
S1130DD0232F342F4427585FF3CF46953795279513
S1130DE0A795F0405395C9F77EF41F16BA0B620B12
S1130DF0730B840BBAF09150A1F0FF0FBB1F661F59
S1130E00771F881FC2F70EC0BA0F621F731F841F9B
S1130E1048F4879577956795B795F7959E3F08F0C1
S1130E20B3CF9395880F08F09927EE0F9795879580
S1130E3008958DD158F080E891E009F49EEF8ED1A9
S1130E4028F040E851E059F45EEF09C058C1C0C130
S1130E50E92FE0789BD168F3092E052AC1F3261700
S1130E6037074807590738F00E2E07F8E02569F0D0
S1130E70E025E0640AC0EF6307F8009407FADB0199
S1130E80B9019D01DC01CA01AD01EF9347D06DD1D9
S1130E900AD05F91552331F02BED3FE049E450FD3A
S1130EA049EC63CF0895DF93DD27B92FBF7740E87E
S1130EB05FE31616170648075B0710F4D92F8FD186
S1130EC09F938F937F936F93F4D1E4EEF0E01AD164
S1130ED04CD12F913F914F915F9194D1DD2349F0F3
S1130EE09058A2EA2AED3FE049EC5FE3D0785D2711
S1130EF04DDFDF913AC1D9D008F481E008950CD0D8
S1130F0034C12CD140F023D130F021F45F3F19F0EB
S1130F10F0C051115EC1F3C039D198F39923C9F3DC
S1130F205523B1F3951B550BBB27AA2762177307EB
S1130F30840738F09F5F5F4F220F331F441FAA1F9F
S1130F40A9F333D00E2E3AF0E0E830D0915050405F
S1130F50E695001CCAF729D0FE2F27D0660F771F0D
S1130F60881FBB1F261737074807AB07B0E809F0EF
S1130F70BB0B802DBF01FF2793585F4F2AF09E3F84
S1130F80510568F0B6C025C15F3FECF3983EDCF331
S1130F90869577956795B795F7959F5FC9F7880FFD
S1130FA0911D9695879597F90895E1E0660F771F4F
S1130FB0881FBB1F621773078407BA0720F0621BE0
S1130FC0730B840BBA0BEE1F88F7E095089504D0D9
S1130FD06894B111FEC00895E1D088F09F5790F055
S1130FE0B92F9927B751A0F0D1F0660F771F881F4A
S1130FF0991F1AF0BA95C9F712C0B13081F0E8D040
S1131000B1E00895E5C0672F782F8827B85F39F0DD
S1131010B93FCCF3869577956795B395D9F73EF4A8
S113102090958095709561957F4F8F4F9F4F089550
S1131030E89409C097FB3EF490958095709561956E
S11310407F4F8F4F9F4F9923A9F0F92F96E9BB2724
S11310509395F695879577956795B795F111F8CFA0
S1131060FAF4BB0F11F460FF1BC06F5F7F4F8F4F0B
S11310709F4F16C0882311F096E911C0772321F001
S11310809EE8872F762F05C0662371F096E8862F99
S113109070E060E02AF09A95660F771F881FDAF7F0
S11310A0880F9695879597F90895990F0008550F1D
S11310B0AA0BE0E8FEEF16161706E807F907C0F0DA
S11310C012161306E407F50798F0621B730B840BE2
S11310D0950B39F40A2661F0232B242B252B21F4BC
S11310E008950A2609F4A140A6958FEF811D811D5C
S11310F0089597F99F6780E870E060E008959FEF96
S113110080EC0895DF93CF931F930F93FF92EF9298
S1131110DF927B018C01689405C0DA2EEF0172D056
S1131120FE01E894A5912591359145915591AEF331
S1131130EF012CDEFE019701A801DA9479F7DF9024
S1131140EF90FF900F911F91CF91DF9108950024AC
S11311500A941616170618060906089500240A9418
S113116012161306140605060895092E0394000C9E
S113117011F4882352F0BB0F40F4BF2B11F460FF2D
S113118004C06F5F7F4F8F4F9F4F089557FD905856
S1131190440F551F59F05F3F71F04795880F97FB37
S11311A0991F61F09F3F79F08795089512161306F1
S11311B01406551FF2CF4695F1DF08C01616170620
S11311C01806991FF1CF8695710561050894089555
S11311D0E894BB2766277727CB0197F908959B01ED
S11311E0AC0160E070E080E89FE389CE0BD0BDCF16
S11311F0AEDF28F0B3DF18F0952309F07ACF7FCF64
S11312001124E7CFC3DFA0F3959FD1F3950F50E0EE
S1131210551F629FF001729FBB27F00DB11D639FA4
S1131220AA27F00DB11DAA1F649F6627B00DA11D4A
S1131230661F829F2227B00DA11D621F739FB00DF0
S1131240A11D621F839FA00D611D221F749F332760
S1131250A00D611D231F849F600D211D822F762FF9
S11312606A2F11249F5750408AF0E1F088234AF0F6
S1131270EE0FFF1FBB1F661F771F881F9150504042
S1131280A9F79E3F510570F034CFA3CF5F3FECF335
S1131290983EDCF3869577956795B795F795E7952E
S11312A09F5FC1F7FE2B880F911D9695879597F93F
S11312B008959B01AC019ACFBB274A3031F499239E
S11312C022F4BDE2909581959F4F01C0BB27FB019D
S11312D05527AA27880F991FAA1FA41710F0A41B2B
S11312E083955051B9F7A05DAA3308F0A95DA19385
S11312F0009779F7B111B1931192CB0100C0DC01D1
S1131300FC01672F71917723E1F7329704C07C9138
S11313106D9370836291AE17BF07C8F30895F89474
S1051320FFCFF9
S11313220D0000803F20636D00696E69636961721C
S1131332202D2046756572612064656C20576869AA
S11313426C6528312900696E677265736F20646168
S1131352746F0064656E74726F2064656C205768E4
S1131362696C6528312900556C747261736F6E69FA
S1131372632D313A2000556C747261736F6E696328
S11313822D323A200043617267612D4261746572A5
S113139269613A200068656164696E673A202000D9
S9030000FC
